{
  "_format": "hh-sol-artifact-1",
  "contractName": "Assessment",
  "sourceName": "contracts/Assessment.sol",
  "abi": [
    {
      "inputs": [
        {
          "internalType": "uint256",
          "name": "initBalance",
          "type": "uint256"
        }
      ],
      "stateMutability": "payable",
      "type": "constructor"
    },
    {
      "anonymous": false,
      "inputs": [
        {
          "indexed": true,
          "internalType": "address",
          "name": "account",
          "type": "address"
        },
        {
          "indexed": false,
          "internalType": "uint256",
          "name": "amount",
          "type": "uint256"
        }
      ],
      "name": "Deposit",
      "type": "event"
    },
    {
      "anonymous": false,
      "inputs": [
        {
          "indexed": true,
          "internalType": "address",
          "name": "account",
          "type": "address"
        },
        {
          "indexed": false,
          "internalType": "uint256",
          "name": "amount",
          "type": "uint256"
        }
      ],
      "name": "Withdraw",
      "type": "event"
    },
    {
      "inputs": [],
      "name": "balance",
      "outputs": [
        {
          "internalType": "uint256",
          "name": "",
          "type": "uint256"
        }
      ],
      "stateMutability": "view",
      "type": "function"
    },
    {
      "inputs": [],
      "name": "deposit",
      "outputs": [],
      "stateMutability": "payable",
      "type": "function"
    },
    {
      "inputs": [],
      "name": "getBalance",
      "outputs": [
        {
          "internalType": "uint256",
          "name": "",
          "type": "uint256"
        }
      ],
      "stateMutability": "view",
      "type": "function"
    },
    {
      "inputs": [],
      "name": "getContractEtherBalance",
      "outputs": [
        {
          "internalType": "uint256",
          "name": "",
          "type": "uint256"
        }
      ],
      "stateMutability": "view",
      "type": "function"
    },
    {
      "inputs": [],
      "name": "getOwner",
      "outputs": [
        {
          "internalType": "address",
          "name": "",
          "type": "address"
        }
      ],
      "stateMutability": "view",
      "type": "function"
    },
    {
      "inputs": [],
      "name": "owner",
      "outputs": [
        {
          "internalType": "address payable",
          "name": "",
          "type": "address"
        }
      ],
      "stateMutability": "view",
      "type": "function"
    },
    {
      "inputs": [
        {
          "internalType": "uint256",
          "name": "_amount",
          "type": "uint256"
        }
      ],
      "name": "withdraw",
      "outputs": [],
      "stateMutability": "nonpayable",
      "type": "function"
    },
    {
      "stateMutability": "payable",
      "type": "receive"
    }
  ],
  "bytecode": "0x6080604052604051610a97380380610a9783398181016040528101906023919060a5565b336000806101000a81548173ffffffffffffffffffffffffffffffffffffffff021916908373ffffffffffffffffffffffffffffffffffffffff160217905550806001819055505060cd565b600080fd5b6000819050919050565b6085816074565b8114608f57600080fd5b50565b600081519050609f81607e565b92915050565b60006020828403121560b85760b7606f565b5b600060c4848285016092565b91505092915050565b6109bb806100dc6000396000f3fe6080604052600436106100745760003560e01c8063893d20e81161004e578063893d20e8146101075780638da5cb5b14610132578063b69ef8a81461015d578063d0e30db01461018857610083565b806312065fe0146100885780632e1a7d4d146100b357806330e76dae146100dc57610083565b3661008357610081610192565b005b600080fd5b34801561009457600080fd5b5061009d6102f1565b6040516100aa919061057b565b60405180910390f35b3480156100bf57600080fd5b506100da60048036038101906100d591906105c7565b6102fb565b005b3480156100e857600080fd5b506100f1610507565b6040516100fe919061057b565b60405180910390f35b34801561011357600080fd5b5061011c61050f565b6040516101299190610635565b60405180910390f35b34801561013e57600080fd5b50610147610538565b6040516101549190610671565b60405180910390f35b34801561016957600080fd5b5061017261055c565b60405161017f919061057b565b60405180910390f35b610190610192565b005b60008054906101000a900473ffffffffffffffffffffffffffffffffffffffff1673ffffffffffffffffffffffffffffffffffffffff163373ffffffffffffffffffffffffffffffffffffffff1614610220576040517f08c379a00000000000000000000000000000000000000000000000000000000081526004016102179061070f565b60405180910390fd5b60003411610263576040517f08c379a000000000000000000000000000000000000000000000000000000000815260040161025a906107a1565b60405180910390fd5b60006001549050346001600082825461027c91906107f0565b925050819055503373ffffffffffffffffffffffffffffffffffffffff167fe1fffcc4923d04b559f4d29a8bfc6cda04eb5b0d3c460751c2402c5c5cc9109c346040516102c9919061057b565b60405180910390a234816102dd91906107f0565b600154146102ee576102ed610824565b5b50565b6000600154905090565b60008054906101000a900473ffffffffffffffffffffffffffffffffffffffff1673ffffffffffffffffffffffffffffffffffffffff163373ffffffffffffffffffffffffffffffffffffffff1614610389576040517f08c379a00000000000000000000000000000000000000000000000000000000081526004016103809061070f565b60405180910390fd5b600081116103cc576040517f08c379a00000000000000000000000000000000000000000000000000000000081526004016103c3906108c5565b60405180910390fd5b806001541015610411576040517f08c379a000000000000000000000000000000000000000000000000000000000815260040161040890610931565b60405180910390fd5b60006001549050816001600082825461042a9190610951565b9250508190555060008054906101000a900473ffffffffffffffffffffffffffffffffffffffff1673ffffffffffffffffffffffffffffffffffffffff166108fc839081150290604051600060405180830381858888f19350505050158015610497573d6000803e3d6000fd5b503373ffffffffffffffffffffffffffffffffffffffff167f884edad9ce6fa2440d8a54cc123490eb96d2768479d49ff9c7366125a9424364836040516104de919061057b565b60405180910390a281816104f29190610951565b6001541461050357610502610824565b5b5050565b600047905090565b60008060009054906101000a900473ffffffffffffffffffffffffffffffffffffffff16905090565b60008054906101000a900473ffffffffffffffffffffffffffffffffffffffff1681565b60015481565b6000819050919050565b61057581610562565b82525050565b6000602082019050610590600083018461056c565b92915050565b600080fd5b6105a481610562565b81146105af57600080fd5b50565b6000813590506105c18161059b565b92915050565b6000602082840312156105dd576105dc610596565b5b60006105eb848285016105b2565b91505092915050565b600073ffffffffffffffffffffffffffffffffffffffff82169050919050565b600061061f826105f4565b9050919050565b61062f81610614565b82525050565b600060208201905061064a6000830184610626565b92915050565b600061065b826105f4565b9050919050565b61066b81610650565b82525050565b60006020820190506106866000830184610662565b92915050565b600082825260208201905092915050565b7f596f7520617265206e6f7420746865206f776e6572206f66207468697320616360008201527f636f756e74000000000000000000000000000000000000000000000000000000602082015250565b60006106f960258361068c565b91506107048261069d565b604082019050919050565b60006020820190508181036000830152610728816106ec565b9050919050565b7f4465706f73697420616d6f756e74206d7573742062652067726561746572207460008201527f68616e2030000000000000000000000000000000000000000000000000000000602082015250565b600061078b60258361068c565b91506107968261072f565b604082019050919050565b600060208201905081810360008301526107ba8161077e565b9050919050565b7f4e487b7100000000000000000000000000000000000000000000000000000000600052601160045260246000fd5b60006107fb82610562565b915061080683610562565b925082820190508082111561081e5761081d6107c1565b5b92915050565b7f4e487b7100000000000000000000000000000000000000000000000000000000600052600160045260246000fd5b7f5769746864726177616c20616d6f756e74206d7573742062652067726561746560008201527f72207468616e2030000000000000000000000000000000000000000000000000602082015250565b60006108af60288361068c565b91506108ba82610853565b604082019050919050565b600060208201905081810360008301526108de816108a2565b9050919050565b7f496e73756666696369656e742062616c616e6365000000000000000000000000600082015250565b600061091b60148361068c565b9150610926826108e5565b602082019050919050565b6000602082019050818103600083015261094a8161090e565b9050919050565b600061095c82610562565b915061096783610562565b925082820390508181111561097f5761097e6107c1565b5b9291505056fea2646970667358221220834464263cdebf57eebfc31f39605e3ddad54322a1bb8405bbb6b4a6919bff9c64736f6c634300081b0033",
  "linkReferences": {},
  "deployedLinkReferences": {}
}